:100000000C9435000C945D000C945D000C945D0024
:100010000C945D000C945D000C945D000C945D00EC
:100020000C945D000C945D000C945D000C945D00DC
:100030000C945D000C945D000C945D000C945D00CC
:100040000C9446030C945D000C94B6030C9490033E
:100050000C945D000C945D000C945D000C945D00AC
:100060000C945D000C945D00980611241FBECFEF28
:10007000D8E0DEBFCDBF22E0A2EBB1E001C01D920F
:10008000A236B207E1F711E0A0E0B1E0E0ECF2E166
:1000900002C005900D92A23BB107D9F710E0C5E36D
:1000A000D0E004C02197FE010E944407C433D10769
:1000B000C9F70E9404040C945E090C940000AF92EE
:1000C000BF92CF92DF92EF92FF920F931F93CF9345
:1000D000DF936C017B018B01040F151FEB015E01A7
:1000E000AE18BF08C017D10759F06991D601ED913C
:1000F000FC910190F081E02DC6010995892B79F7DB
:10010000C501DF91CF911F910F91FF90EF90DF908C
:10011000CF90BF90AF900895FC01538D448D252F53
:1001200030E0842F90E0821B930B541710F0CF9691
:10013000089501970895FC01918D828D981761F0C3
:10014000A28DAE0FBF2FB11D5D968C91928D9F5FDA
:100150009F73928F90E008958FEF9FEF08952FB7D0
:10016000F8948091BD019091BE01A091BF01B09122
:10017000C0012FBF8093C9019093CA01A093CB0106
:10018000B093CC0181EC91E00E949B0097FF26C0C8
:100190002FB7F8948091BD019091BE01A091BF014D
:1001A000B091C0012FBF4091C9015091CA01609127
:1001B000CB017091CC01841B950BA60BB70B409122
:1001C000C5015091C6016091C7017091C8018417A3
:1001D0009507A607B707B0F28FEF9FEF0895FC01D0
:1001E000918D828D981731F0828DE80FF11D858DEC
:1001F00090E008958FEF9FEF0895FC01918D228D7F
:10020000892F90E0805C9F4F821B91098F73992703
:10021000089581EC91E00E94FD0021E0892B09F412
:1002200020E0822F089580E090E0892B29F00E9441
:10023000090181110C9400000895FC01A48DA80F00
:10024000B92FB11DA35ABF4F2C91848D90E0019618
:100250008F739927848FA689B7892C93A089B18938
:100260008C91837080648C93938D848D981306C0D9
:100270000288F389E02D80818F7D80830895EF923D
:10028000FF920F931F93CF93DF93EC0181E0888F50
:100290009B8D8C8D98131AC0E889F989808185FF20
:1002A00015C09FB7F894EE89FF896083E889F989C2
:1002B00080818370806480839FBF81E090E0DF91C4
:1002C000CF911F910F91FF90EF900895F62E0B8D17
:1002D00010E00F5F1F4F0F731127E02E8C8D8E11D2
:1002E0000CC00FB607FCFACFE889F989808185FF39
:1002F000F5CFCE010E941D01F1CFEB8DEC0FFD2F4C
:10030000F11DE35AFF4FF0829FB7F8940B8FEA89F3
:10031000FB8980818062CFCFCF93DF93EC01888D02
:100320008823B9F0AA89BB89E889F9898C9185FD70
:1003300003C0808186FD0DC00FB607FCF7CF8C91FE
:1003400085FFF2CF808185FFEDCFCE010E941D0198
:10035000E9CFDF91CF9108951092B5011092B401C9
:100360001092B3011092B2011092B7011092B6012F
:100370000895FC01448155816081718181EC91E097
:100380000E945F0042E050E068E171E081EC91E0A2
:100390000C945F00FC0124813581232B39F421E08A
:1003A000FB018081882349F020E007C08081918192
:1003B0000E94400921E0892BB9F781E08227089546
:1003C000AF92BF92CF92DF92EF92FF920F931F9363
:1003D000CF93DF93DC01CD90DC901197C114D10451
:1003E00039F01496CD91DC918C017601209761F45F
:1003F000DF91CF911F910F91FF90EF90DF90CF9001
:10040000BF90AF90089575015701BFEFAB1ABB0ABB
:10041000F7018081082E000C990B0E940107892B9F
:1004200091F72197CC0DDD1D8881082E000C990BCA
:100430000E940107892B29F0CE15DF0510F02197C6
:10044000F3CFAE014F5F5F4F4E195F09D80115968C
:100450005C934E931497CE14DF0420F4B701C601C9
:100460000E942C09D801ED91FC91119714968D9161
:100470009C91E80FF91F1082BBCFCF93DF93FC0153
:1004800024813581232B79F0C081D181062E000C87
:10049000770BCE010E943509009729F08C1B9D0B2C
:1004A000DF91CF9108958FEF9FEFFACFFB01448149
:1004B0005581FC01248135812417350778F080812E
:1004C0009181009759F0FB0160817181611571057F
:1004D00029F00E94500921E0892B09F020E0822FA9
:1004E00008950F931F93CF93DF93EC018881998137
:1004F000009759F02A813B812617370730F081E0B9
:10050000DF91CF911F910F9108958B016F5F7F4F06
:100510000E946F08009759F0998388831B830A8390
:100520002C813D81232B59F7FC011082E8CF80E01C
:10053000E7CFCF93DF93EC0188819981009711F089
:100540000E94E607198218821D821C821B821A8271
:10055000DF91CF910895EF92FF920F931F93CF9366
:10056000DF93EC017B01198218821B821A821D82A3
:100570001C82FB0101900020E9F731978F01061BD7
:10058000170BB8010E947102811109C0CE01DF91E1
:10059000CF911F910F91FF90EF900C9499021D83C2
:1005A0000C83B70188819981DF91CF911F910F91C1
:1005B000FF90EF900C9449099F92AF92BF92CF9217
:1005C000DF92EF92FF920F931F93CF93DF937C0103
:1005D0006B015A0189012417350720F48B2D59012D
:1005E000042F182F6AE171E0C7010E94AB02D60107
:1005F0001496CD91DC91AC16BD0650F50C171D0775
:1006000008F4E801D601ED91FC911197EC0FFD1F64
:10061000908010820D911C910A0D1B1D0115110572
:1006200071F0F80101900020E9F731975F01A01AFD
:10063000B10AB501C7010E947102811116C0C7013C
:100640000E949902D6018D919C91C80FD91F988262
:10065000C701DF91CF911F910F91FF90EF90DF9035
:10066000CF90BF90AF909F900895F701B582A4827C
:10067000B801808191810E944909E4CFFC01808109
:100680009181009711F00C94E60708951F920F9244
:100690000FB60F9211242F933F938F939F93AF9395
:1006A000BF938091BD019091BE01A091BF01B09117
:1006B000C0013091BC0123E0230F2D3758F501967E
:1006C000A11DB11D2093BC018093BD019093BE017B
:1006D000A093BF01B093C0018091B8019091B9017E
:1006E000A091BA01B091BB010196A11DB11D8093EB
:1006F000B8019093B901A093BA01B093BB01BF9127
:10070000AF919F918F913F912F910F900FBE0F90BE
:100710001F90189526E8230F0296A11DB11DD2CF78
:100720001F920F920FB60F9211242F933F934F9366
:100730005F936F937F938F939F93AF93BF93EF9349
:10074000FF9381EC91E00E941D01FF91EF91BF9119
:10075000AF919F918F917F916F915F914F913F9159
:100760002F910F900FBE0F901F9018951F920F9210
:100770000FB60F9211242F938F939F93EF93FF93B4
:10078000E091D101F091D2018081E091D701F09107
:10079000D80182FD1BC090818091DA018F5F8F7339
:1007A0002091DB01821741F0E091DA01F0E0EF5394
:1007B000FE4F958F8093DA01FF91EF919F918F917A
:1007C0002F910F900FBE0F901F9018958081F4CF3E
:1007D000CF93DF93EC018091B4019091B5016BE16F
:1007E00071E0029751F08091B2019091B30168E2FB
:1007F00071E0029711F06AE171E0CE010E94AB0254
:10080000CE01DF91CF910895CF93DF93CDB7DEB7BF
:10081000C254D1090FB6F894DEBF0FBECDBF789495
:1008200084B5826084BD84B5816084BD85B58260F5
:1008300085BD85B5816085BD80916E0081608093A6
:100840006E0010928100809181008260809381000F
:10085000809181008160809381008091800081601F
:10086000809380008091B10084608093B10080917A
:10087000B00081608093B00080917A0084608093A2
:100880007A0080917A00826080937A0080917A0069
:10089000816080937A0080917A00806880937A00EA
:1008A0001092C100E091D101F091D20182E08083E9
:1008B000E091CD01F091CE011082E091CF01F09155
:1008C000D0018FEC80831092D901E091D501F09195
:1008D000D60186E08083E091D301F091D40180813C
:1008E00080618083E091D301F091D40180818860A0
:1008F0008083E091D301F091D4018081806880836E
:10090000E091D301F091D40180818F7D80830E949A
:10091000AC0181EC91E00E94FD00181619060CF064
:10092000ACC06AE171E0CE01CD960E94AB020E949C
:10093000AF0097FD24C08A30910509F189831A829E
:1009400023960EAD1FAD23970F5F1F4FB801CE0149
:10095000CD960E947102882351F32DAD3EAD2396B2
:100960008EAD9FAD2397BE016F5F7F4F820F931FA8
:100970000E94490923961FAF0EAF2397D8CFCE010F
:10098000CD960E94E00165E371E0CE0101960E94E0
:10099000AB02BE016F5F7F4FCE01CD960E94560223
:1009A000182FCE0101960E943E036BE371E01111F6
:1009B00018C063E471E0CE0101960E94AB02BE0153
:1009C0006F5F7F4FCE01CD960E945602182FCE0149
:1009D00001960E943E03112379F00E94AC016AE463
:1009E00071E0CE0101960E94AB02CE0101960E94F9
:1009F000B901CE0101963BC065E571E0CE010196DB
:100A00000E94AB02BE016F5F7F4FCE01CD960E9468
:100A10005602182FCE0101960E943E03112309F4BD
:100A200084C123962EAD3FAD239748E050E0BE0130
:100A3000635C7F4FCE01C7960E94DC026BE3CE0160
:100A4000C7960E943D028C010F3F100719F56EE515
:100A500071E0CE0101960E94AB02CE0101960E9488
:100A6000B901CE0101960E943E03CE01C7960E94B5
:100A70003E03CE01CD960E943E0380E090E0892B9C
:100A800009F447CF0E940901882309F442CF0E944C
:100A900000003FCF980150E040E0BE01695C7F4F0D
:100AA000CE01C1960E94DC022BAD3CADA8014F5F88
:100AB0005F4FBE01695C7F4FCE018B960E94DC02C6
:100AC000CE01C1960E94E001CE018B960E94E0010A
:100AD0006DE3CE01C1960E943D027C016DE3CE0123
:100AE0008B960E943D028C018FEFE816F80619F0F4
:100AF0000F3F1007A9F46EE571E0CE0101960E9448
:100B0000AB02CE0101960E94B901CE0101960E946E
:100B10003E03CE018B960E943E03CE01C196A3CF29
:100B2000970150E040E0BE016F5C7F4FCE0185969B
:100B30000E94DC022DA93EA9A7014F5F5F4FBE01B5
:100B40006F5C7F4FCE014F960E94DC02980150E00F
:100B500040E0BE01655D7F4FCE0149960E94DC02F8
:100B60002FA538A9A8014F5F5F4FBE01655D7F4F7C
:100B7000CE0143960E94DC0260E771E0CE018596CB
:100B80000E94CA01811108C06AE771E0CE0149964E
:100B90000E94CA018823E9F064E871E0CE01019661
:100BA0000E94AB02CE0101960E94B901CE010196CE
:100BB0000E943E03CE0143960E943E03CE01499619
:100BC0000E943E03CE014F960E943E03CE018596C1
:100BD0009ECF8F8D98A1812C912C5401009719F0F4
:100BE0000E94C5064B018B899C89C12CD12C7601B2
:100BF000009719F00E94C5066B0183E088169104E6
:100C000058F683E0C816D10438F6CE010D960E943E
:100C1000E8036AE171E0CE010D960E94CA018823C3
:100C200089F064E871E0CE0101960E94AB02CE012A
:100C300001960E94B901CE0101960E943E03CE01A9
:100C40000D96B6CF84018C149D0409F457C08928F1
:100C500041F482E0C816D10409F04DC001E010E073
:100C600007C00230110509F040C0CA94CD28B1F385
:100C70008091B6019091B70101969093B70180934E
:100C8000B60101301105E9F58091B4019091B501EB
:100C900001969093B5018093B401CE0107960E940E
:100CA000E8038B859C85892B29F0EF81F88580816D
:100CB000811134C061E971E00115110539F066E96F
:100CC00071E00130110511F064EA71E0CE01019686
:100CD0000E94AB02CE0101960E94B901CE0101969D
:100CE0000E943E03CE010796A8CF0130110519F4EA
:100CF000CD2809F4BDCF02E010E0BACF10E000E04B
:100D0000B7CF0230110549F68091B2019091B3013D
:100D100001969093B3018093B201BFCFCE010796A5
:100D20000E94B9010E94AC01DDCF6EE571E059CEA1
:100D3000E1ECF1E01382128288EE93E0A0E0B0E0F3
:100D400084839583A683B7838AE091E0918380832F
:100D500085EC90E09587848784EC90E09787868780
:100D600080EC90E0918B808B81EC90E0938B828B78
:100D700082EC90E0958B848B86EC90E0978B868B51
:100D8000118E128E138E148E08951F93FC019927D5
:100D90008827BC01E89411911032E9F3193010F062
:100DA0001E30C8F31B3251F01D3249F4689406C05E
:100DB0000E94EC06610F711D811D911D1191105350
:100DC0001A30B0F33EF490958095709561957F4F01
:100DD0008F4F9F4F1F910895592F482F372F262F40
:100DE000660F771F881F991F660F771F881F991F2F
:100DF000620F731F841F951F660F771F881F991F2F
:100E0000089591110C940A07803219F08950855089
:100E1000C8F708959927882708952F923F924F92F7
:100E20005F926F927F928F929F92AF92BF92CF927A
:100E3000DF92EF92FF920F931F93CF93DF93CDB783
:100E4000DEB7CA1BDB0B0FB6F894DEBF0FBECDBFFB
:100E500009942A88398848885F846E847D848C84CC
:100E60009B84AA84B984C884DF80EE80FD800C81D5
:100E70001B81AA81B981CE0FD11D0FB6F894DEBFB8
:100E80000FBECDBFED010895EE0FFF1F0590F49149
:100E9000E02D09940F931F93CF93DF938230910538
:100EA00010F482E090E0E0916002F091610230E0A5
:100EB00020E0B0E0A0E0309799F42115310509F465
:100EC0004AC0281B390B24303105D8F58A819B8113
:100ED0006115710589F1FB0193838283FE0111C0C5
:100EE000408151810281138148175907E0F048176A
:100EF000590799F4109761F012960C931297139674
:100F00001C933296CF01DF91CF911F910F910895DD
:100F10000093600210936102F4CF2115310551F066
:100F20004217530738F0A901DB019A01BD01DF0127
:100F3000F801C1CFEF01F9CF909361028093600275
:100F4000CDCFFE01E20FF31F81939193225031091F
:100F500039832883D7CF20915E0230915F02232B03
:100F600041F4209102013091030130935F022093FC
:100F70005E0220910001309101012115310541F4FB
:100F80002DB73EB74091040150910501241B350B4C
:100F9000E0915E02F0915F02E217F307A0F42E1BCE
:100FA0003F0B2817390778F0AC014E5F5F4F2417CD
:100FB000350748F04E0F5F1F50935F0240935E026B
:100FC000819391939FCFF0E0E0E09CCFCF93DF93AC
:100FD0000097E9F0FC01329713821282A09160021F
:100FE000B0916102ED0130E020E01097A1F4208182
:100FF0003181820F931F20915E0230915F0228178A
:10100000390709F061C0F0935F02E0935E02DF915F
:10101000CF910895EA01CE17DF07E8F54A815B8199
:101020009E0141155105B1F7E901FB83EA8349911E
:101030005991C40FD51FEC17FD0761F48081918190
:101040000296840F951FE901998388838281938199
:101050009B838A83F0E0E0E012968D919C91139738
:101060000097B9F52D913C911197CD010296820F11
:10107000931F20915E0230915F022817390739F6DD
:10108000309751F51092610210926002B0935F02A6
:10109000A0935E02BCCFD383C28340815181840F71
:1010A000951FC817D90761F44E5F5F4F88819981FA
:1010B000480F591F518340838A819B819383828388
:1010C0002115310509F0B0CFF0936102E093600281
:1010D0009ECFFD01DC01C0CF13821282D7CFB0E0DA
:1010E000A0E0E5E7F8E00C940F078C01009751F4BD
:1010F000CB010E944A078C01C801CDB7DEB7E0E101
:101100000C942B07FC01E60FF71F9C0122503109BC
:10111000E217F30708F49DC0D901CD91DC91119736
:10112000C617D70798F0C530D10530F3CE01049724
:101130008617970708F3C61BD70B2297C193D19345
:101140006D937C93CF010E94E607D6CF5B01AC1A6A
:10115000BD0A4C018C0E9D1EA0916002B0916102EF
:10116000512C412CF12CE12C109731F580915E022D
:1011700090915F028815990509F05CC046165706E4
:1011800008F058C08091000190910101009741F44E
:101190008DB79EB74091040150910501841B950BBA
:1011A000E817F90708F055C0F0935F02E0935E027C
:1011B000F90171836083A0CF8D919C911197129654
:1011C0006C90129713967C901397A815B90559F552
:1011D0006C0142E0C40ED11CCA14DB0420F1AC0146
:1011E0004A195B09DA011296159780F062827382C0
:1011F00051834083D9016D937C93E114F10471F024
:10120000D7011396FC93EE93129776CF22968C0F0C
:101210009D1FF90191838083F301EFCFF093610269
:10122000E093600269CF4816590608F42C017D014D
:10123000D3019ACFCB010E944A077C01009749F065
:10124000AE01B8010E942C09C8010E94E60787017F
:1012500053CF10E000E050CFFB01DC0102C0019051
:101260000D9241505040D8F70895FC0181918617A6
:1012700021F08823D9F7992708953197CF01089550
:10128000FB01DC018D91019080190110D9F3990BBC
:101290000895FB01DC0101900D920020E1F7089513
:1012A000FB01DC014150504030F08D9101908019DC
:1012B00019F40020B9F7881B990B0895F894FFCF13
:1012C000000062028000000000003F015F008C000F
:1012D0008C01FD009B00EF000D0A006F6E655F77CB
:1012E0006F6E5F67616D650074776F5F776F6E5FBC
:1012F00067616D650070696E673D00737563636556
:1013000073730072657365743D0067616D655F722C
:10131000657365740063686F696365733D0065722A
:10132000726F725F70617273696E675F786D6C0067
:10133000706C617965724F6E6500706C6179657271
:1013400054776F00696E76616C69645F6D6F766566
:101350000064726177006F6E655F776F6E5F726FAA
:10136000756E640074776F5F776F6E5F726F756E06
:02137000640017
:00000001FF
